S00E0000427574746F6E2E737265639A
S11300000C9434000C9446000C9446000C94460066
S11300100C9446000C9446000C9446000C94460044
S11300200C9446000C9446000C9446000C94460034
S11300300C9446000C9446000C94CD000C9446009D
S11300400C9446000C9446000C9446000C94460014
S11300500C9446000C9446000C9446000C94460004
S11300600C9446000C94460011241FBECFEFD8E038
S1130070DEBFCDBF21E0A0E0B1E001C01D92A230FF
S1130080B207E1F70E94AE000C94F9000C94000052
S1130090FC0171836083CB01019693838283029771
S11300A0958384834683DB013C9181E090E0DC010D
S11300B002C0AA0FBB1F4A95E2F72A2F20952323DB
S11300C0DB012C93A281B3812C91068002C0880F9E
S11300D0991F0A94E2F7822B8C931086178211865B
S11300E0128613860895CF93DF93EC018F81988550
S11300F00E94F000892B79F5EC81FD8140814A87CB
S11301008985481789F0808190E00E8002C095951A
S113011087950A94E2F780FD07C049878BB191E087
S113012089278BB99B8712C0508181E090E09C01A4
S11301300E8002C0220F331F0A94E2F7852F90E04D
S113014082239323019711F449871B868F81988515
S11301504E9698878F83DF91CF910895CF93DF9345
S1130160CDB7DEB72C970FB6F894DEBF0FBECDBF68
S11301708AB183608AB98BB18C7F8BB90E94E70006
S1130180789441E064E270E0CE0101960E94480058
S1130190CE0101960E947300FBCF1F920F920FB6FF
S11301A00F9211248F939F938091000190910101EC
S11301B00196909301018093000187B5875087BD14
S11301C09F918F910F900FBE0F901F90189585B53A
S11301D0836085BDEEE6F0E08081826080830895CF
S11301E02091000130910101A901481B590BCA015A
S10901F00895F894FFCF0E
S9030000FC
