:100000000C9434000C9446000C9446000C9446006A
:100010000C9446000C9446000C9446000C94460048
:100020000C9446000C9446000C9446000C94460038
:100030000C9446000C9446000C9424010C94460049
:100040000C9446000C9446000C9446000C94460018
:100050000C9446000C9446000C9446000C94460008
:100060000C9446000C94460011241FBECFEFD8E03C
:10007000DEBFCDBF21E0A0E0B1E001C01D92A23003
:10008000B207E1F70E9401010C9478010C94000082
:10009000FC0171836083CB01019693838283029775
:1000A000958384834683DB013C9181E090E0DC0111
:1000B00002C0AA0FBB1F4A95E2F72A2F20952323DF
:1000C000DB012C93A281B3812C91068002C0880FA2
:1000D000991F0A94E2F7822B8C9389E18587148615
:1000E00013861286118681E08783808708951F9387
:1000F000CF93DF93EC018B859C850E944701892B70
:1001000009F072C0EC81FD8180812E8190E0022E89
:1001100002C0959587950A94E2F7482F4170488769
:100120003F81431771F0808190E0022E02C09595C7
:1001300087950A94E2F780FF04C089858C7D8460EE
:100140008987431769F0808190E002C09595879573
:100150002A95E2F780FD04C089858B7F8B608987B3
:10016000198511FF04C08A858F5F8A8701C01A86AE
:10017000EA85F0E02D8530E08AEF90E0B9010E9439
:10018000500177276E177F0724F410FF02C0177FF6
:10019000198784EF91E0B9010E94500177276E170B
:1001A0007F0774F488EE93E0B9010E94500177272D
:1001B000E617F7072CF4898580FF02C080618987E4
:1001C00088EE93E0B9010E94500177276E177F07F0
:1001D00024F489858F7E806289874F838B859C85F7
:1001E000280F391F3C872B87DF91CF911F910895EE
:1001F000FC01918593FF04C092FF02C0977F918715
:100200000895CF93DF93CDB7DEB72E970FB6F8944E
:10021000DEBF0FBECDBF8AB187608AB98BB1887F40
:100220008BB90E943E01789441E064E270E0CE0117
:1002300001960E944800CE0101960E947700CE01EF
:1002400001960E94F800F7CF1F920F920FB60F92FF
:1002500011248F939F938091000190910101019649
:10026000909301018093000187B5875087BD9F91CE
:100270008F910F900FBE0F901F90189585B58360DA
:1002800085BDEEE6F0E08081826080830895209154
:10029000000130910101A901481B590BCA010895C1
:1002A00097FB072E16F4009407D077FD09D00E9423
:1002B000640107FC05D03EF4909581959F4F089509
:1002C000709561957F4F0895AA1BBB1B51E107C034
:1002D000AA1FBB1FA617B70710F0A61BB70B881FD6
:1002E000991F5A95A9F780959095BC01CD01089565
:0402F000F894FFCFB0
:00000001FF
